:020000040800F2
:10000000A808002005010008B31200081D10000810
:10001000AF120008D10B00083125000800000000D5
:10002000000000000000000000000000351C000877
:10003000C50D00080000000039130008391D000834
:100040001F0100081F0100081F0100081F01000810
:100050001F0100081F0100081F0100081F01000800
:100060001F0100081F0100081F0100081F010008F0
:100070001F0100081F0100081F0100081F010008E0
:100080001F0100081F0100081F0100081F010008D0
:100090001F0100081F0100081F0100081F010008C0
:1000A0001F0100081F0100081F0100081F010008B0
:1000B000A11D00081F010008000000001F0100082A
:1000C0001F01000800000000000000001F010008E0
:1000D00000000000FD2100081F01000800000000D2
:1000E0001F0100081F0100081F010008DFF810D0E1
:1000F00000F0F2FB00480047AD300008AFF300808D
:10010000A80800200648804706480047FEE7FEE7AB
:10011000FEE7FEE7FEE7FEE7FEE7FEE7FEE7FEE7B7
:100120003D1D0008ED000008F0B480EA0102D40F84
:100130004200B2EB410F02D20246084611464A0085
:1001400042D0C30DDDB2C1F3C752AD1A202D35DA4E
:10015000C1F3160141F4000204B15242C5F1200678
:1001600002FA06F12A411044B3EBD05F23D0C4B1A8
:10017000012DA0EBC35009DCF0BC4FF0004202EAB5
:10018000C352DBB200F5000000F07BBA400000F182
:10019000807000EBC350A0F1807040EAD17049003C
:1001A00009E0490841EAC071A0EBC35000F5000026
:1001B000400800EBC350F0BC00F05ABA6142012283
:1001C00002EB4101001BF6E7F0BC704781F00041F3
:1001D000AAE780F00040A7E780EA010210B502F02C
:1001E0000043400022D04A001FD0010E01EB1261F3
:1001F000C0F35600C2F3560240F4000042F400027D
:10020000A0FB022000047F39140400D0401C50EAF7
:10021000124001D44000491EC2B20C0604EBD010BB
:10022000401C4008802A02D003E0002010BD20F0CE
:100230000100002900DA0020184310BD30B480EA24
:10024000010202F0004530F0004221F0004013D0DE
:1002500090B1C30DD40DC2F31601C0F31600E41A19
:1002600041F4000140F400027D34914201D3641C4A
:1002700000E04900002C02DA30BC002070474FF447
:1002800000000023914201D3891A034340084FEA3A
:100290004101F7D151B1914202D14FF0004105E047
:1002A00002D24FF0010101E06FF0010103EBC450F5
:1002B000284430BC00F0DCB92DE9FE4F804681EACD
:1002C0000300C00F0C46009021F0004123F00045D0
:1002D000B8EB0200A94105D24046214690461C4693
:1002E0000B46024623F00040104347D0270DC7F3CA
:1002F0000A00C3F30A510290401A019040286BDAB9
:10030000C3F3130040F4801B0098924620B10023F1
:10031000D2EB030A63EB0B0B01985946C0F1400284
:10032000504600F084F906460D4650465946019A5B
:1003300000F08CF910EB08006141002487EA1152AB
:1003400084EAE7731A4340D0009A62B3019A012A03
:100350004FEA075215DC001B61EB02014FF000422F
:1003600002EA0752CDE90042001C41F580113246F5
:100370002B4600F0C3F903B0BDE8F08F404621469C
:10038000F9E7001B61EB0201001C41F58013001826
:100390005B412018A2F5001747EB030140EAD57036
:1003A000B6196D4111E06D084FEA360645EAC07591
:1003B0004FEA0752001B61EB0201001C41F580115E
:1003C00049084FEA30000019514132462B4603B02C
:1003D000BDE8F04F00F083B90098012240000023EF
:1003E000D0EB020263EBE073009821464FEAE07421
:1003F000B8EB000061EB0401E9E783F000435BE741
:1004000081F0004158E72DE9FE4F81EA030404F032
:10041000004421F0004100944FF0000B23F0004312
:1004200050EA01045ED052EA03045BD0C3F30A54DD
:10043000C1F30A552C44A4F2F3340194A0FB0254F6
:10044000C1F3130141F48011C3F3130343F4801388
:1004500001FB024400FB034E840A970A44EA8154DC
:1004600047EA8357A4FB076802958D0A05FB0785B9
:100470004FEA932C04FB0C542705029D4FEA0658C3
:1004800047EA1637B5EB08056EEB070C870E920EA0
:1004900047EA811742EA8312A7FB0201B6EB0B0180
:1004A00064EB00042B0D43EA0C335E1844EB1C5044
:1004B000DA465146E7FB0201C5F313044FEA0B335A
:1004C00043EA14534FEA0432019C43EA0603A4F1C1
:1004D0000C040294009CCDE900B400F00FF903B0C5
:1004E000BDE8F08F00200146F9E7C10F80EAE07017
:1004F0000844CA079623002100F0C3B896230022BF
:10050000114600F0BEB820F00040C10DC0F3160047
:1005100040F400007F2901DA00207047962903DCAF
:10052000C1F19601C840704796398840704700F085
:10053000004230F000400AD0C10D01F56071C0F3F7
:10054000160042EA0151C2084007114370470020DB
:100550000146704701F0004330B421F0004150EAF9
:10056000010206D00A0DA2F56072C1F31301002A40
:1005700002DC30BC00207047440F44EAC104C100D3
:10058000E01830BC00EBC25000F072B8002801DB6C
:10059000C0F10040002901DBC1F1004181427047F8
:1005A00030B50B46014600202022012409E021FA43
:1005B00002F59D4205D303FA02F5491B04FA02F540
:1005C0002844151EA2F10102F1DC30BD2DE9F05FD7
:1005D0000546002092469B468846064681464024B2
:1005E0001BE0284641464746224600F087F953461D
:1005F0005A46C01A914110D311461846224600F0BF
:1006000016F82D1A67EB01084F46224601200021FB
:1006100000F00DF817EB00094E41201EA4F1010473
:10062000DFDC484631462A464346BDE8F09F202A93
:1006300004DB203A00FA02F1002070479140C2F139
:10064000200320FA03F3194390407047202A06DB69
:10065000CB17203A41FA02F043EAE07306E041FA90
:1006600002F3D040C2F1200291400843194670477E
:100670000029A8BF7047401C490008BF20F00100B6
:10068000704710B4B0FA80FC00FA0CF050EA010494
:1006900004BF10BC704749B1CCF1200421FA04F426
:1006A00011FA0CF118BF012121430843A3EB0C01FF
:1006B000CB1D4FEA00614FEA102042BF002010BC62
:1006C000704700EBC35010440029A4BF10BC704712
:1006D000401C490008BF20F0010010BC704710B555
:1006E000141E73F1000408DA401C41F10001921855
:1006F0005B411A4301D120F0010010BD2DE9F04DFE
:1007000092469B4611B1B1FA81F202E0B0FA80F252
:1007100020329046FFF78BFF04460F4640EA0A005E
:1007200041EA0B0153465A46084313D0114653EA97
:10073000010019D0C8F14002504600F0DFF805462C
:100740000E46504659464246FFF771FF084305D012
:10075000012004E020463946BDE8F08D0020054325
:1007600046EAE0762C4337430A986305E40AA0EB97
:1007700008000022FD0A44EA47540A3002D500204E
:100780000146E9E7010510196941DDE9084500194D
:100790006941BDE8F04DA2E72DE9F04D81EA03047F
:1007A00004F0004B21F0004514464FF0000A23F0FE
:1007B000004150EA050220D054EA01021DD0C5F3E1
:1007C0000A570246C5F31303C1F31300C1F30A56D7
:1007D00040F4801543F48013A7EB0608101BD6469F
:1007E00008F2FD3873EB050002D308F1010801E0BF
:1007F00092185B41B8F1000F03DA00200146BDE812
:10080000F08D00204FF48011064684460EE0171B41
:1008100073EB050705D3121B63EB050306434CEA94
:10082000010C49084FEA300092185B4150EA010779
:10083000EDD152EA030012D082EA040083EA0501F6
:10084000084305D0101BAB4106D20122002306E06D
:1008500000224FF0004302E06FF0010253101AEB48
:1008600006004CEB085110EB0A0041EB0B01BDE810
:10087000F04DFFF734BFC1F30A52C1F3130140F248
:10088000FF3341F480119A4202DA0020014670479A
:1008900040F233439A42A2F2334202DC524200F069
:1008A0002DB8FFF7C4BE000030B5041E71F100047E
:1008B00004DB4FF00044404264EB0101141E73F16D
:1008C000000405DB1C464FF00043524263EB040377
:1008D000994208BF904230BD064C074D06E0E068E3
:1008E00040F0010394E8070098471034AC42F6D377
:1008F000FFF700FC5032000870320008202A04DBA9
:10090000203A21FA02F00021704721FA02F3D04088
:10091000C2F12002914008431946704721B1826814
:1009200042F00102826003E0826822F001028260EC
:10093000704721B1826842F48072826003E082686D
:1009400022F4807282607047014600208A6802F0BB
:1009500004020AB1012000E0002070470146002097
:100960008A6802F008020AB1012000E00020704706
:1009700030B502460020002350680F4C20400D790E
:100980000C6844EA05242043506090680B4C2040DA
:10099000D1E902542C434D7944EA45042043906048
:1009A000D06A20F470000C7C641EE4B2234340EA59
:1009B0000350D06230BD0000FFFEF0FFFDF7F1FFF5
:1009C000F0B504460D4600200021092D11DDE06838
:1009D000A5F10A0606EB4607072606FA07F1884343
:1009E000A5F10A0606EB460603FA06F10843E060A5
:1009F0000CE0206905EB4507072606FA07F1884356
:100A000005EB450603FA06F108432061072A0FDAD1
:100A1000606B561E06EB86071F2606FA07F1884311
:100A2000561E06EB860605FA06F10843606322E0CF
:100A30000D2A0FDA206BD61F06EB86071F2606FA53
:100A400007F18843D61F06EB860605FA06F1084330
:100A5000206310E0E06AA2F10D0606EB86071F2670
:100A600006FA07F18843A2F10D0606EB860605FAA1
:100A700006F10843E062F0BD816841F00801816041
:100A8000704721B1826842F4A002826003E082686C
:100A900022F4A00282607047816841F00401816005
:100AA0007047000008B50121042000F049FD062030
:100AB000ADF8000000208DF803006946014800F001
:100AC0009DF908BD0008014010B5FFF7EBFF00F0ED
:100AD00001F810BD00B591B00121084600F010FDED
:100AE0000121480200F02CFD364800F0A1F83648FC
:100AF00006903648079000200890022009900020B8
:100B00000A9080200B9040000C9080000D902020D7
:100B10000E9000020F900020109006A9294800F0C6
:100B200031F90121274800F077F8002001900120D9
:100B30008DF808008DF809004FF460200390002024
:100B4000049002208DF8140001A91F484C38FFF7CB
:100B50000FFF002000F0C8FC0723012211461A48AD
:100B60004C38FFF72DFF07230222114616484C3858
:100B7000FFF726FF012114484C38FFF7CFFE12483B
:100B80004C38FFF779FF00BF0F484C38FFF7E6FEFF
:100B90000028F9D10C484C38FFF77EFF00BF0A4807
:100BA0004C38FFF7D1FE0028F9D1012106484C3816
:100BB000FFF767FF012104484C38FFF7BAFE11B078
:100BC00000BD0000080002404C24014070000020DD
:100BD00000BFFEE770B5044600250AE0064802F0B3
:100BE00009FA601B86B2314604A001F0CBFC681CF8
:100BF00085B2A542F2DB70BDC0C62D00536F757281
:100C00006365206F6620537461626C652054696D62
:100C1000653A25640D0A000021B1026842F0010224
:100C2000026004E002684FF6FE731A4002607047EB
:100C300001684FF6FE7211400160002101604160C1
:100C40008160C1604B49884208D14A4908394968E6
:100C500041F00F01474A083A51608AE04549143192
:100C6000884208D143490839496841F0F001414AB6
:100C7000083A51607DE03F492831884208D13D491A
:100C80000839496841F470613A4A083A516070E0A5
:100C900038493C31884208D136490839496841F41D
:100CA0007041344A083A516063E032495031884219
:100CB00008D130490839496841F470212D4A083A71
:100CC000516056E02B496431884208D129490839DE
:100CD000496841F47001274A083A516049E02549C2
:100CE0007831884208D123490839496841F0706158
:100CF000204A083A51603CE01F49884206D1011F52
:100D0000096841F00F01021F116032E01A491431E5
:100D1000884208D11849091F096841F0F001164AB4
:100D2000121F116025E014492831884208D1124968
:100D3000091F096841F470610F4A121F116018E021
:100D40000D493C31884208D10B49091F096841F41B
:100D50007041094A121F11600BE007495031884267
:100D600007D10549091F096841F47021024A121F81
:100D700011607047080002400804024001464868BC
:100D800080B2704710B50022026847F6F0739A43AC
:100D90000C6A8B6823430C6923434C6923438C6999
:100DA0002343CC6923434C6A23438C6A23431A436D
:100DB0000260CB6843600B6883604B68C36010BD02
:100DC00041607047704700000549096821F0100133
:100DD000034A116011460968014311607047000021
:100DE0000020024001460020034A106800F038004D
:100DF0000843106070470000002002402DE9F041D8
:100E0000024600250026002000230024002791F838
:100E100003C00CF00F0591F803C00CF0100CBCF1EE
:100E2000000F03D091F802C04CEA050591F800C00C
:100E3000BCF1000F31D0146800202BE04FF0010C02
:100E40000CFA00F3B1F800C00CEA03069E4220D170
:100E500083004FF00F0C0CFA03F7BC4305FA03FCB8
:100E60004CEA040491F803C0BCF1280F06D14FF0FE
:100E7000010C0CFA00FCC2F814C00AE091F803C09F
:100E8000BCF1480F05D14FF0010C0CFA00FCC2F880
:100E900010C0401C0828D1D31460B1F800C0BCF1C8
:100EA000FF0F34DD546800202EE000F1080C4FF0F5
:100EB000010808FA0CF3B1F800C00CEA03069E42E0
:100EC00021D183004FF00F0C0CFA03F7BC4305FA55
:100ED00003FC4CEA040491F803C0BCF1280F05D1CF
:100EE00000F1080C08FA0CF8C2F8148091F803C05D
:100EF000BCF1480F07D100F1080C4FF0010808FAC7
:100F00000CF8C2F81080401C0828CED35460BDE80D
:100F1000F0810246002093680B400BB1012000E0F5
:100F20000020704741617047016170472DE9F0472B
:100F300005460C460027B846002612E0B4F800A08B
:100F400020880D4921F81600B4F8029060880B49FA
:100F500021F816005744C8443C2002F04BF8701C9E
:100F600086B2AE42EADBB7FBF5F005490880B8FB74
:100F7000F5F04880BDE8F08796000020760200205A
:100F80001400002038B504460020009000F0E8FA74
:100F9000012000F0A9FB1948006800F00200009051
:100FA0000098022825D11020FFF70EFF0020FFF740
:100FB00019FF002000F08CFB002000F0A7FB4FF48D
:100FC000806000F097FB2146002000F0B1FB01207B
:100FD00000F0A8FB00BF392000F054FB0028FAD035
:100FE000022000F0B3FB00BF00F06AFB0828FBD131
:100FF00002E003A001F0C6FA38BD00000010024074
:101000000D0A202D2D2D2DCAB1D6D3B3F5CABCBBE8
:10101000AFCAA7B0DC2D2D2D2D0D0A0000BFFEE7B5
:1010200010B54FF480610D48FFF77CFF00F038F9F0
:101030004FF400610948FFF775FF00F031F94FF4F4
:1010400080610648FFF770FF00F02AF94FF48061D5
:101050000248FFF767FF00F023F910BD000C0140C4
:1010600008B50121082000F06BFA4FF48060ADF85C
:10107000000003208DF8020014208DF8030069465B
:101080000848FFF7BBFE4FF40060ADF800000320F6
:101090008DF8020014208DF8030069460148FFF71F
:1010A000ADFE08BD000C014010B54FF480610D4845
:1010B000FFF738FF00F0F4F84FF400610948FFF73C
:1010C00033FF00F0EDF84FF480610648FFF72CFF86
:1010D00000F0E6F84FF480610248FFF723FF00F0CC
:1010E000DFF810BD000C014070B50825002429026E
:1010F0001348FFF719FF17E06006040E4FF48061F4
:101100000F48FFF70FFF00F0CBF84FF480610C4859
:10111000FFF70AFF00F0C4F84FF400610848FFF73A
:10112000F8FE08B144F00104281EA5F10101CDB27A
:10113000E2D14FF480610248FFF7F4FE204670BD13
:10114000000C014070B5044608251FE04FF4806193
:101150001448FFF7E7FE00F0A3F804F0800028B180
:101160004FF400610F48FFF7DFFE04E04FF4006129
:101170000C48FFF7D7FE6006040E00F091F84FF41C
:1011800080610848FFF7D0FE00F08AF8281EA5F11C
:101190000101CDB2DAD14FF480610248FFF7C2FEFF
:1011A00070BD0000000C014010B54FF400611548FF
:1011B000FFF7BAFE4FF480611248FFF7B5FE00F06A
:1011C0006FF84FF400610F48FFF7A3FE08B9002045
:1011D00010BD4FF400610B48FFF7A4FE00F060F86B
:1011E0004FF400610748FFF794FE08B10020EFE7D5
:1011F0004FF400610348FFF795FE00F051F801201D
:10120000E6E70000000C014010B54FF480610D4886
:10121000FFF788FE00F044F84FF400610948FFF73B
:1012200081FE00F03DF84FF480610648FFF77CFE38
:1012300000F036F84FF400610248FFF775FE00F049
:101240002FF810BD000C014010B54FF48061134819
:10125000FFF768FE00F024F84FF400610F48FFF735
:1012600063FE00F01DF84FF480610C48FFF75CFE50
:1012700000F016F84FF400610848FFF74AFE30B15D
:101280004FF480610548FFF74DFE002010BD4FF47C
:1012900080610248FFF746FE0120F7E7000C01409D
:1012A000322001E0411EC8B20028FBD1704700BFC8
:1012B000FEE7704770B5002100230F22C47804B305
:1012C000154C246804F4E064C4F5E064210AC1F11B
:1012D0000403CA40447804FA03F18478144021439B
:1012E00009010E4C0678A155047804F01F0501246D
:1012F000AC4005786D11AD0005F1E025C5F8004161
:1013000009E0047804F01F050124AC40044D067880
:10131000761145F8264070BD0CED00E000E400E0D9
:1013200080E100E002490143024A11607047000079
:101330000000FA050CED00E0704700002DE9F04FC9
:1013400085B080460E4635480068FFF7DCF8054654
:101350003046FFF7D8F881464046FFF7D4F8A9EBAE
:101360000004002721462EA001F00CF905FB04F033
:10137000FFF7C4F883462C49FEF72EFF814604FB95
:1013800004F0FFF7BBF829490090FEF725FF8346DC
:1013900005FB05F0FFF7B2F825490090FEF71CFFAA
:1013A00059460190FEF7C0FE82464946FEF7BCFE54
:1013B00003902046FFF7A2F883461E49FEF70CFF74
:1013C00081462846FFF79AF883461B49FEF704FF3B
:1013D00082464946FEF7A8FE02900399FEF7A4FE56
:1013E00016490490FEF7A0FE074600213846FFF795
:1013F000CDF801D287F0004711493846FFF7C6F80B
:1014000008D210493846FEF719FF81460E49FEF70B
:101410008BFE0746384605B0BDE8F08F500000202F
:101420004125640D0A000000333307C185EBA1405C
:101430000000504100005FC500102C45D0E6154962
:1014400000A08C45000070410000C84270B5044601
:101450000026002521480088132803DA00202049AF
:10146000087002E001201E4908701D48007868B924
:101470001C481A49098840F8214018480088401C37
:10148000164908802046FFF739F870BD13480088D8
:10149000142190FBF1F201FB120010490880114861
:1014A000098840F82140002504E00E4850F8250046
:1014B00006446D1C142DF8DB1420B6FBF0F409482B
:1014C0000649098840F82140002604480088401C4D
:1014D000024908802046FFF711F8D6E71E000020D9
:1014E000200000205804002001460020034A5068D4
:1014F00020F4404008435060704700000010024054
:1015000029B1064A52690243044B5A6104E0034A76
:1015100052698243014B5A6170470000001002403B
:1015200029B1064AD2690243044BDA6104E0034A56
:10153000D2698243014BDA6170470000001002401B
:1015400029B1064A92690243044B9A6104E0034AB6
:1015500092698243014B9A6170470000001002407B
:101560001048006840F001000E49086008464068D5
:101570000D4908400B494860084600680B4908407F
:10158000084908600846006820F480200860084682
:10159000406820F4FE0048604FF41F00886000207F
:1015A000C8627047001002400000FFF8FFFFF6FE1F
:1015B00070B5002100230024002200252C4E7668FF
:1015C00006F00C0121B1042905D0082921D105E03C
:1015D000284E066020E0274E06601DE0244E766807
:1015E00006F47013224E766806F48034022606EB69
:1015F00093431CB9204E5E43066009E01C4EF66A18
:1016000006F00F06751C1B4EB6FBF5F65E43066032
:1016100002E0184E066000BF00BF154E766806F067
:10162000F0010909154E725C0668D6404660104EFE
:10163000766806F4E061090A104E725C4668D6408E
:1016400086600B4E766806F46051C90A0B4E725CD8
:101650004668D640C660064E766806F44041890B5F
:10166000074E725CC668B6FBF2F6066170BD0000FC
:101670000010024000127A0000093D0074000020B2
:101680008400002010B501460022002300204A11EA
:10169000012A02D1094C236806E0022A02D1074C34
:1016A000236A01E0054C636A01F01F0201249440A3
:1016B0001C400CB1012000E0002010BD00100240D1
:1016C0000248406800F00C00704700000010024023
:1016D00001460020034A506820F0F00008435060A3
:1016E0007047000000100240014908607047000088
:1016F0000000424201460020034A506820F4E060A6
:10170000084350607047000000100240014600206E
:10171000034A506820F4605040EAC10050607047AE
:101720000010024001490866704700000000424274
:1017300002460020044B586820F4741042EA01036A
:101740001843014B586070470010024001460020CA
:10175000034A506820F003000843506070470000BF
:101760000010024010B53E493E4800F0E8F93D48FF
:1017700000783C49497808443A49C97808443949CD
:101780000979084437494979084436498979084430
:101790003449C979084400285DDD32484378012284
:1017A000002100F0A7F9002851D02E48C37801226B
:1017B000022100F09FF9002849D02A4843790122EC
:1017C000042100F097F9002841D02648C37901226E
:1017D000062100F08FF9002839D0214883780222B1
:1017E000002100F087F9002831D01D4843790222FA
:1017F000032100F07FF950B31BA000F0C3FE18488E
:10180000C07800061649097900EB014015490978AE
:1018100000EB0120134989780844174908601148F2
:10182000007900060F49897900EB01400C490978DD
:1018300000EB01200A49497808441049086008462D
:1018400002680D4801680EA000F09CFE07E011A0A0
:1018500000F098FE03E00249024800F070F910BD64
:101860006000002058000020534854325820435252
:1018700043206F6B0D0A0000680000206C00002000
:10188000534854325820534E3A3078257825780DF5
:101890000A000000534854325820435243206572D6
:1018A000726F720D0A00000070B500F0A5F848B123
:1018B0000B480068FEF73BFE044622460B4609A093
:1018C00000F060FE00F01EF848B109480068FEF71D
:1018D0002EFE044622460B4606A000F053FE70BDC5
:1018E00050000020CEC2B6C8A3BA25660D0A00007B
:1018F00054000020CAAAB6C8A3BA256625250D0A39
:10190000000000002DE9F84F4FF0000A0020009081
:10191000FFF74AFC10B90020BDE8F88F8020FFF7E0
:1019200011FCFFF791FC18B9FFF76EFC0020F3E7FC
:10193000F520FFF707FCFFF787FC142001F080FB80
:10194000FFF762FC00BFFFF72FFC8120FFF7FAFBD7
:10195000FFF77AFC0028F6D04FF0000A09E0FFF705
:10196000C3FB0DF80A00FFF75BFB0AF1010000F072
:10197000FF0ABAF1030FF2DDFFF796FBFFF744FC15
:101980009DF800009DF8011008449DF802100844DD
:10199000002826DD9DF8023002220021684600F072
:1019A000A9F8F0B19DF801109DF8002001EB02218B
:1019B0004FF6F07201EA0200FEF797FD8346FEF74C
:1019C000B6FD80460022094BFEF71DFD06460022AB
:1019D000074BFEF771FC0446FEF7BCFD05490860A5
:1019E00001E0002098E7012096E7000000405F3FFB
:1019F000000018C0540000202DE9F84F4FF0000AF5
:101A000000200090FFF7D0FB10B90020BDE8F88F50
:101A10008020FFF797FBFFF717FC18B9FFF7F4FBDF
:101A20000020F3E7F320FFF78DFBFFF70DFC1420F8
:101A300001F006FBFFF7E8FB00BFFFF7B5FB8120D5
:101A4000FFF780FBFFF700FC0028F6D04FF0000AFC
:101A500009E0FFF749FB0DF80A00FFF7E1FA0AF188
:101A6000010000F0FF0ABAF1030FF2DDFFF71CFBE3
:101A7000FFF7CAFB9DF800009DF8011008449DF88F
:101A800002100844002826DD9DF8023002220021C1
:101A9000684600F02FF8F0B19DF801109DF8002085
:101AA00001EB02214FF6FC7201EA0200FEF71DFD78
:101AB0008346FEF73CFD8046094A0A4BFEF7A3FC2D
:101AC0000646094A094BFEF7F7FB0446FEF742FDBE
:101AD0000749086001E0002098E7012096E7000030
:101AE000D7A3703D0AF7653FCDCCCCCCCC6C47C0BA
:101AF00050000020F0B505460C4616460027002190
:101B0000224613E0A85C414008270BE001F080006A
:101B100020B1312080EA4100C1B201E04806010E47
:101B2000781EC7B2002FF1DC501CC2B2A01990423F
:101B3000E8DC994201D10120F0BD0020FCE770B53E
:101B400006460D460824FFF72FFB08B9002070BD9C
:101B50008020FFF7F7FAFFF777FB18B9FFF754FB80
:101B60000020F4E7FA20FFF7EDFAFFF76DFB0F20F6
:101B7000FFF7E8FAFFF768FBFFF716FB08B900204C
:101B8000E5E78120FFF7DEFAFFF75EFB18B9FFF704
:101B90003BFB0020DBE70CE0FFF7A6FA3070012CDE
:101BA00002D1FFF781FA01E0FFF73AFA761C601ED6
:101BB000C4B2002CF0D1FFF727FB0624FFF7F4FA9C
:101BC00008B90020C3E78020FFF7BCFAFFF73CFB11
:101BD00018B9FFF719FB0020B9E7FC20FFF7B2FAAC
:101BE000FFF732FBC920FFF7ADFAFFF72DFBFFF738
:101BF000DBFA08B90020AAE78120FFF7A3FAFFF774
:101C000023FB18B9FFF700FB0020A0E70CE0FFF76B
:101C10006BFA2870012C02D1FFF746FA01E0FFF7BA
:101C2000FFF96D1C601EC4B2002CF0D1FFF7ECFA76
:101C300001208CE7704710B500F002F810BD0000DD
:101C40000CB50020019000902A48006840F48030D4
:101C50002849086000BF2748006800F40030009061
:101C60000198401C0190009818B90198B0F5A06F38
:101C7000F1D12048006800F4003010B1012000903C
:101C800001E0002000900098012831D119484068F7
:101C900018494860084640684860084640684860FF
:101CA0000846406820F47C1048600846406840F4CC
:101CB000981048600846006840F08070086000BFD7
:101CC0000C48006800F000700028F9D0094840680E
:101CD00020F00300074948600846406840F00200D1
:101CE000486000BF0348406800F00C000828F9D1A4
:101CF0000CBD000000100240014600220846034BC4
:101D00001B68C218014B186050087047440000203F
:101D1000042808D14FF0E021096941F004014FF097
:101D2000E022116107E04FF0E021096921F0040190
:101D30004FF0E022116170477047000010B5144861
:101D4000006840F0010012490860084640681149E7
:101D500008400F494860084600680F4908400C4990
:101D600008600846006820F4802008600846406843
:101D700020F4FE0048604FF41F0088600020C86215
:101D8000FFF759FF4FF000600449086010BD0000E4
:101D9000001002400000FFF8FFFFF6FE08ED00E033
:101DA00010B50221480700F04AF848B101201A494D
:101DB00008700020194908700221480700F030F827
:101DC0000421080700F03BF840B1002012490870D8
:101DD000124908700421080700F022F80821C806FB
:101DE00000F02DF848B101200C49087000200A4984
:101DF00008700821C80600F013F81021880600F0CA
:101E00001EF840B1002005490870034908701021F0
:101E1000880600F005F810BD4900002048000020A9
:101E2000CA430282704721B1028842F00102028057
:101E300004E002884FF6FE731A400280704730B506
:101E40000246002000230024158A05EA0103958933
:101E500005EA010413B10CB1012000E0002030BDFF
:101E60001AB183890B43838102E083898B43838189
:101E70007047000070B5002400220023058C4FF647
:101E8000FE7635400584028C8388048B4FF68F756F
:101E90002C40B51E2C400D882C43751E2A400D8900
:101EA0002A434D882A43144DA8420BD0134DA84213
:101EB00008D0134DA84205D0124DA84202D0124DB1
:101EC000A84213D14FF6F7752A404D892A434FF6A1
:101ED000FB752A408D882A434FF6FF652B404FF64D
:101EE000FF552B408D892B43CD892B438380048361
:101EF000CD888586028470BD002C014000340140ED
:101F00000040014000440140004801400A460021D1
:101F1000018B4FF6F773194011430183704700009E
:101F200070B5002400220023058C4FF6EF76354073
:101F30000584028C8388048B48F6FF752C404FF68D
:101F4000FF452C400D884FF6FF7606EA05252C4309
:101F50004FF6DF752A400D8906EA05152A434D889C
:101F600006EA05152A43154DA84202D0144DA84291
:101F70001DD14FF67F752A404D894FF6FF7606EA50
:101F800005152A434FF6BF752A408D8806EA0515C8
:101F90002A434FF6FF352B404FF2FF752B408D89BA
:101FA00006EA85052B43CD8906EA85052B43838008
:101FB0000483CD880587028470BD0000002C014099
:101FC000003401400A460021018B4FF2FF73194093
:101FD0004FF6FF7303EA02231943018370470000A1
:101FE00070B5002400220023058C4FF6FF663540B3
:101FF0000584028C8388848B4FF68F752C404FF6B6
:10200000FC752C400D882C434FF6FF552A400D8956
:102010004FF6FF7606EA05252A434D8806EA052590
:102020002A43154DA84202D0144DA8421DD14FF2AB
:10203000FF752A404D894FF6FF7606EA05252A43AB
:102040004FF6FF352A408D8806EA05252A434EF6CD
:10205000FF752B404DF6FF752B408D8906EA05155F
:102060002B43CD8906EA05152B4383808483CD88D5
:102070008587028470BD0000002C014000340140BF
:102080000A460021818B4FF6F77319401143818373
:102090007047000070B5002200230024058C4EF626
:1020A000FF7635400584038C8488828B48F6FF7563
:1020B0002A404FF6FF452A400D884FF6FF7606EA84
:1020C00005252A434DF6FF752B400D8906EA053597
:1020D0002B434D8806EA05352B430B4DA84202D011
:1020E0000A4DA84208D14BF6FF752C408D894FF65A
:1020F000FF7606EA85152C4384808283CD88A0F87C
:102100004050038470BD0000002C014000340140A9
:102110000A460021818B4FF2FF7319404FF6FF737F
:1021200003EA0223194381837047000000220288DA
:102130001D4B98420ED01D4B98420BD0B0F1804FF2
:1021400008D01B4B984205D01A4B984202D01A4B2C
:10215000984204D14FF68F731A404B881A43174B9D
:10216000984207D0164B984204D04FF6FF431A40CE
:10217000CB881A4302808B8883850B8803850A4BA2
:1021800098420BD0094B984208D00E4B984205D08C
:102190000D4B984202D00D4B984201D10B7A038629
:1021A0000123838270470000002C0140003401406D
:1021B0000004004000080040000C004000100040F7
:1021C000001400400040014000440140004801402C
:1021D00008B54FF4C060FFF7A5F825208DF8000082
:1021E00000208DF8010002208DF8020001208DF8FA
:1021F00003006846FFF75EF808BD000010B540F226
:102200002441114800F0A2F8E8B100210F48FEF780
:1022100003FD0E48FEF7B2FD0446C4F1050082B28C
:102220000B49094800F086F905210848FEF7C8FD6A
:1022300001210648FEF7F0FC034800F043F91021A5
:10224000014800F007F810BD003801405800024076
:102250004B00002001F40072B2F5007F00D100BFF6
:10226000CA430280704721B1828942F400528281C0
:1022700004E082894DF6FF731A40828170470000A6
:1022800000B585B001210420FFF75AF90121880328
:10229000FFF756F94FF40070ADF8100018208DF8D4
:1022A000130003208DF8120004A91B48FEF7A6FDB9
:1022B0004FF48060ADF8100004208DF8130004A9DD
:1022C0001548FEF79BFD4FF4165000900020ADF826
:1022D0000400ADF80600ADF80800ADF80C000C20C5
:1022E000ADF80A0069460D4800F080F8FFF770FF6E
:1022F000012240F22551094800F052F80121074817
:10230000FFF7B1FF00F0E8F801224021034800F098
:1023100007F805B000BD000000080140003801408A
:102320001AB1838A0B43838202E0838A8B438382C0
:10233000704702460020B1F5007F00D100BF13882E
:102340000B400BB1012000E00020704770B5024641
:10235000002400230025002040F66A16B14200D177
:1023600000BFC1F3421501F01F03012606FA03F373
:10237000012D02D19689334006E0022D02D1168A42
:10238000334001E0968A33400C12012606FA04F429
:102390001688344013B10CB1012000E0002070BD5C
:1023A000F0B50346002400260025002040F66A17F9
:1023B000B94200D100BF1846C1F3421401F01F0614
:1023C000012707FA06F5012C01D10C3004E0022C9C
:1023D00001D1103000E014301AB107682F430760B4
:1023E00002E00768AF430760F0BD00002DE9F04749
:1023F00086B005460E460024A24600BFA14600272F
:10240000B08900B100BF2F462C8A4CF6FF70044003
:10241000F08804432C82AC894EF6F3100440B08857
:1024200031890843718908430443AC81AC8A4FF673
:10243000FF400440B0890443AC8201A8FFF7B8F81C
:102440001F48874202D1DDF810A001E0DDF80CA0A2
:10245000A88900F4004040B10AEBCA0000EB0A1062
:1024600031684900B0FBF1F807E00AEBCA0000EB65
:102470000A1031688900B0FBF1F86420B8FBF0F075
:1024800004012009642101FB1089A88900F400409F
:1024900040B1322000EBC900B0FBF1F000F00700C2
:1024A000044308E0322000EB09106421B0FBF1F096
:1024B00000F00F0004432C8106B0BDE8F087000057
:1024C0000038014001468888C0F308007047C1F316
:1024D000080282807047000000B58BB001210846D9
:1024E000FFF70EF80F4800900F480190002002906F
:1024F0000520039000200490802005900020069085
:10250000079020200890C001099000200A90694699
:102510000648FEF737FC01210448FEF77DFB0BB0AF
:1025200000BD0000043801404B000020580002406C
:1025300000BFFEE72DE9F04107460D461646002490
:1025400005E0295D384600F00DF8601CC4B2B442C5
:10255000F7DB00BF40213846FFF7EBFE0028F9D03B
:10256000BDE8F08170B504460D4629462046FFF7C8
:10257000AEFF00BF80212046FFF7DBFE0028F9D028
:1025800070BD00000FB4054B10B503A9044A0298B2
:1025900000F0DAF810BC5DF814FB00005D300008B4
:1025A0008800002002E008C8121F08C1002AFAD1E2
:1025B00070477047002001E001C1121F002AFBD1C3
:1025C000704700002DE9FF5F82B00021DDE9043093
:1025D000020DDDF840B0034318D044F61050A2F2CB
:1025E000FF3242431514119801281FD0A5EB0B00B0
:1025F000401C5FEA000A4FF000064E4FDFF83891AA
:10260000B046504615D5CAF1000413E011980124D4
:102610004AA3012801D16FEA0B010298119AC0E97F
:102620000031C0E9024206B0BDE8F09FCBF10000E6
:10263000DFE704460021404A491842EB0450CDE947
:10264000001012E0E00707D032463B4640464946BC
:10265000FDF7D9FE8046894632463B46104619466C
:10266000FDF7D1FE06460F466410002CEAD1DDE9E5
:102670000401DDE90023BAF1000F06DAFDF7C3FE1D
:1026800042464B46FDF7BFFE05E0FEF785F84246A1
:102690004B46FEF781F804460E460022284BFEF713
:1026A00003F903D84FF0FF30014607E00022254B25
:1026B00020463146FDF700FEFEF7DDF8102409E064
:1026C000002C0ADB0A220023FDF780FF039B303237
:1026D0001A55641E50EA0102F2D1641C039AC4F137
:1026E00011031444119A012A03D0012208430DD189
:1026F0000AE0084304D000204FF0110B119072E75C
:10270000A3EB0B056D1E0DE05B4504DD4FF00002F1
:1027100005F1010504E003DA4FF00002A5F101051F
:10272000002AECD002981199C0E90231C0E90045B5
:1027300079E70000000014400000F03F3000000086
:102740000000F0430000E03F2DE9FF4F95B09A46AE
:10275000884606460025EEE1252877D10024274645
:10276000F94A0121039400E0044316F8013F203B9D
:1027700001FA03F01042F7D130782A2811D06FF017
:102780002F033078A0F13002092A16D8039A44F0BA
:10279000020402EB820203EB42021044761C039017
:1027A000EFE758F8042B0392002A03DA504244F46E
:1027B0000054039044F00204761C30782E2816D181
:1027C00016F8010F44F004042A280DD06FF02F02F0
:1027D0003078A0F13003092B09D807EB870302EB0F
:1027E0004303C718761CF3E758F8047B761C30784F
:1027F0006C280FD006DC4C2817D068280DD06A282A
:1028000014D104E0742810D07A280FD10DE044F4DC
:1028100000140AE044F4801401E044F44014727897
:10282000824202D104F58014761C761C307866282A
:102830000BD013DC582877D009DC002875D0452848
:10284000F6D04628F4D047281AD193E118E063283F
:1028500035D0642879D0652812D18BE1702873D0E7
:1028600008DC6728F1D069286FD06E280DD06F285A
:1028700006D1ACE073282CD0752874D0782853D0BA
:102880005246179990476D1C54E1C4F30250022838
:1028900009D003280DD0D8F8001004280DD00D6001
:1028A00008F1040846E1D8F80010EA17C1E900521F
:1028B000F6E7D8F800100D80F2E70D70F0E718F891
:1028C000041B8DF8001000208DF80100EB4601205C
:1028D00003E058F804BB4FF0FF3061074FF00001F0
:1028E00002D40DE009F101018946B9420FDA8145B0
:1028F000F8DB1BF809100029F4D108E009F1010107
:1029000089468142FADB1BF809100029F6D10398A9
:102910005346A0EB090721463846179A00F080FA83
:10292000284400EB090507E044E008E10DE01BF84E
:10293000010B524617999047B9F10109F7D2534656
:1029400021463846179AF2E039E00A21C4F30252D0
:102950004FF0000B0091022A06D058F8040BC11763
:10296000032A09D00AE023E008F1070020F007025B
:10297000F2E80201904605E000B2C117042A01D135
:1029800040B2C117002906DA0A460021404261EB35
:1029900002012D2202E0220504D52B228DF804200D
:1029A000012203E0E20701D02022F7E7914657E039
:1029B0000A2100E010214FF0000B00910BE01021E4
:1029C0004FF0000B44F004040827009103E00820B6
:1029D0004FF0000B0090C4F30252022A05D058F8C1
:1029E000040B0021032A08D008E008F1070020F0BA
:1029F0000702F2E80201904603E080B2042A00D107
:102A0000C0B24FF0000922072AD53278702A07D0C9
:102A1000DDF800C08CF0100C5CEA0B0C05D00EE069
:102A200040228DF80420012208E050EA010306D07C
:102A300030238DF804308DF8052002229146009B4A
:102A400083F0080353EA0B030AD150EA010201D1D3
:102A5000620705D530228DF804204FF001097F1E52
:102A60003278582A04D039A20C920CAA02920BE0B8
:102A70003BA2F9E75B46009AFDF7A8FD0C9B9B5C27
:102A8000029A521E0292137050EA0102F2D1029889
:102A900004A9081A00F1200B600702D524F4803441
:102AA00000E001275F4502DDA7EB0B0000E00020FE
:102AB00000EB0B01009003984944401A0390E00397
:102AC00006D453462146179A039800F0A9F9054405
:102AD000002706E001A85246C05D179990476D1C7B
:102AE0007F1C4F45F6DBE0030CD553462146179A71
:102AF000039800F095F9054404E0302052461799F8
:102B000090476D1C0099481E00900029F5DC08E0F4
:102B10000298029952460078491C029117999047F1
:102B20006D1CBBF10001ABF1010BF1DC5BE100F0CE
:102B300065F90544761C307800287FF40DAE19B095
:102B40002846BDE8F08F00000928010030313233FB
:102B500034353637383961626364656600000000D9
:102B600030313233343536373839414243444546C3
:102B700000000000600700D4062708F1070020F0DD
:102B80000700F0E80223804603F0004C5FEA0C00E7
:102B900001D097A009E0200501D596A005E0E00747
:102BA00001D095A001E0AFF24C001390307823F0F3
:102BB000004365280CD006DC452809D046281DD0E6
:102BC00047287FD13BE0662818D067287AD136E0C5
:102BD0000021112F01DB112000E0781CCDE900015C
:102BE00004A90CA8FFF7EEFCDDE90D010C9A4FF0EB
:102BF000000B07F10109109200914EE04FF00040E8
:102C00000097CDE9011004A90CA8FFF7DBFCDDE972
:102C10000D020C9B0F994FF0000B91461093009200
:102C200011B9791C00EB0109B7EB090003D4C0F11D
:102C3000FF3B07F10109A9EB0700019042E0012FDA
:102C400000DA01270021112F01DD112000E03846B4
:102C5000CDE9000104A90CA8FFF7B4FCDDE90D01E2
:102C60000C9A00914FF0000BB946109221070FD437
:102C7000009A4A4503DA914601E0A9F10109B9F148
:102C8000010F05DD109AA9F10101515C3029F4D042
:102C9000B84202DA10F1040F03DA0121CDE9011084
:102CA00010E0002803DC8344A9EB000102E0411C92
:102CB000494500DD8946A0EB0B00401C01904FF018
:102CC00000400290200705D40198484502DB4FF0F0
:102CD000FF30019000208DF84B0002980DF14B075A
:102CE000B0F1004F25D002200C902B200D900298BF
:102CF00000280CDA404202902D200D9007E00A21B6
:102D00000298FDF74DFC3031029007F8011D0C9937
:102D1000481E0C900029F2DC02980028EFD1791EA1
:102D20000D980870307800F0200040F0450007F85A
:102D3000020D11A8C01BC01D02901398007800B1AD
:102D4000012000EB0901019801EBE07102980144B8
:102D50000398401A401E0390E00306D453462146D0
:102D6000179A039800F05CF805441398007818B19E
:102D70005246179990476D1CE00323D553462146D0
:102D8000179A039800F04CF805441BE0BBF1000FC4
:102D900007DB0098584504DD1098179910F80B00D0
:102DA00001E0179930205246904701980BF1010B32
:102DB000401E05F10105019004D12E2052461799BD
:102DC00090476D1CB9F10001A9F10109DEDC05E0B5
:102DD00017F8010B5246179990476D1C0299481E2F
:102DE00002900029F4DC53462146179A03989EE688
:102DF0002D0000002B000000200000002DE9F04114
:102E0000044600251E461746880404D405E03946CA
:102E10002020B0476D1C641EF9D52846BDE8F0811E
:102E20002DE9F041044600251E469046C80301D511
:102E3000302700E02027880404D505E041463846C5
:102E4000B0476D1C641EF9D52846BDE8F08100B579
:102E500087B001210846FEF763FB40F2CF70ADF862
:102E6000140040F69F70ADF810000020ADF8160079
:102E7000ADF812008DF8180004A94FF08040FFF75C
:102E800055F96020ADF800000120ADF802000220E5
:102E9000ADF8080040F2B630ADF806004FF480708F
:102EA000ADF80C0069468005FEF7E4FF0821C8066E
:102EB000FFF72CF84FF47570ADF80600694600076F
:102EC000FFF72EF80821C806FFF77CF840F29E7045
:102ED000ADF8060069464FF08040FFF781F8082101
:102EE000C806FFF7CDF840F2BC70ADF806006946A1
:102EF0004FF08040FFF7CEF80821C806FFF708F929
:102F000001221E219007FEF7ABFF01218807FEF783
:102F10008AFF07B000BD000000B587B00121022084
:102F2000FEF7FEFA40F2CF70ADF8140040F69F7045
:102F3000ADF810000020ADF81600ADF812008DF8C5
:102F4000180004A91048FFF7F1F86020ADF8000060
:102F50000120ADF802000220ADF808004FF47A70AD
:102F6000ADF806004FF48070ADF80C0069460648D5
:102F7000FEF780FF08210448FEF7C8FF0121024840
:102F8000FEF751FF07B000BD0004004008B5012165
:102F90000420FEF7D5FA18208DF8030003208DF8E1
:102FA00002004020ADF8000069460248FDF726FF08
:102FB00008BD00000008014010B5FFF7E7FFFFF76C
:102FC000ABFF10BD10B500F05BF8FFF740FF10BD80
:102FD00010B50420FEF79CFE034800680349B0FBCF
:102FE000F1F00349087010BD0000002000127A00C3
:102FF000280000200146114A12784A434FF0E0238E
:103000005A6100229A611A46126942F001021A615D
:1030100000BF4FF0E022106900F001021AB100F485
:103020008032002AF5D04FF0E022126922F001022E
:103030004FF0E0231A6100229A61704728000020B7
:10304000002107E0002201E0531C9AB20B2AFBDBAF
:103050004B1C99B28142F5DB7047000070B5044605
:103060000D46E1B20548FFF732FA00BF8021034860
:10307000FFF75FF90028F9D0204670BD0038014005
:1030800008B54FF4C060FEF74DF91C208DF8000024
:1030900000208DF8010002208DF8020001208DF83B
:1030A00003006846FEF706F908BD000008B50120D8
:1030B0004D4908700020FDF765FFFFF77DFF4A4886
:1030C0000078012801D1FFF77DFFFFF781FFFFF7AF
:1030D000D7F84FF4B470FDF77DFDFDF7F5FCFDF773
:1030E000BFFFFEF73FFB7EE03F480078012854D148
:1030F0003E480078012811D13D4908703D49F02033
:10310000FDF714FF3C490888FDF7F8F900903A49AB
:103110004888FDF7F3F98146FEF7C6FB374800788B
:10312000012860D13248007801285CD13149F02073
:10313000FDF7FCFE30490888FDF7E0F907462E4907
:103140004888FDF7DBF9804638460099FDF73EF8E0
:10315000824649464046FDF739F806463146504614
:10316000FEF7ECF80546FDF7CEF96421B0FBF1F06F
:1031700084B22046FEF76AF90546FDF7C4F984B229
:10318000204600F04DF884B22046FEF7B5FD84B22B
:1031900021461BA0FFF7F6F925E017490888FDF73F
:1031A000ADF9009014494888FDF7A8F981464846D2
:1031B0000099FDF70BF88346FDF7A5F985B229467E
:1031C00011A0FFF7DFF95046FDF79DF905462946A6
:1031D0000FA0FFF7D7F93046FDF795F905462946C8
:1031E0000DA0FFF7CFF97FE74A000020490000203B
:1031F0001C00002070000020140000204800002067
:103200004325640D0A0000004125640D0A000000FA
:10321000414325640D0A0000415225640D0A000057
:1032200010B501460B46094800681A1A192A08DD2C
:1032300012F1190F05DA142092FBF0F0034C246808
:10324000031902480360006810BD00004000002020
:1032500070320008000000208C000000A425000847
:10326000FC3200088C0000201C080000B425000877
:1032700000366E010000000000000000010203049F
:103280000607080900000000000000000000000020
:10329000000000000000000000000000000000002E
:1032A0000000E1456F12833A8FC2F53C0000000038
:1032B000000000000000000000000000000000000E
:1032C00000000000000000000000000000000000FE
:1032D00000000000000000000000000000000000EE
:1032E00000000000000000000102030401020304CA
:0C32F000060708090204060800000000A0
:04000005080000ED02
:00000001FF
